{
    "abi": [
        {
            "type": "constructor",
            "inputs": [
                {
                    "name": "_cardTokenAddress",
                    "type": "address",
                    "internalType": "address"
                }
            ],
            "stateMutability": "nonpayable"
        },
        {
            "type": "function",
            "name": "CARD_DECIMALS",
            "inputs": [],
            "outputs": [
                {
                    "name": "",
                    "type": "uint8",
                    "internalType": "uint8"
                }
            ],
            "stateMutability": "view"
        },
        {
            "type": "function",
            "name": "LINK_2_EARN_AMOUNT",
            "inputs": [],
            "outputs": [
                {
                    "name": "",
                    "type": "uint256",
                    "internalType": "uint256"
                }
            ],
            "stateMutability": "view"
        },
        {
            "type": "function",
            "name": "MINT_2_EARN_AMOUNT",
            "inputs": [],
            "outputs": [
                {
                    "name": "",
                    "type": "uint256",
                    "internalType": "uint256"
                }
            ],
            "stateMutability": "view"
        },
        {
            "type": "function",
            "name": "approve",
            "inputs": [
                {
                    "name": "to",
                    "type": "address",
                    "internalType": "address"
                },
                {
                    "name": "tokenId",
                    "type": "uint256",
                    "internalType": "uint256"
                }
            ],
            "outputs": [],
            "stateMutability": "nonpayable"
        },
        {
            "type": "function",
            "name": "balanceOf",
            "inputs": [
                {
                    "name": "owner",
                    "type": "address",
                    "internalType": "address"
                }
            ],
            "outputs": [
                {
                    "name": "",
                    "type": "uint256",
                    "internalType": "uint256"
                }
            ],
            "stateMutability": "view"
        },
        {
            "type": "function",
            "name": "cardToken",
            "inputs": [],
            "outputs": [
                {
                    "name": "",
                    "type": "address",
                    "internalType": "contract IERC20"
                }
            ],
            "stateMutability": "view"
        },
        {
            "type": "function",
            "name": "getApproved",
            "inputs": [
                {
                    "name": "tokenId",
                    "type": "uint256",
                    "internalType": "uint256"
                }
            ],
            "outputs": [
                {
                    "name": "",
                    "type": "address",
                    "internalType": "address"
                }
            ],
            "stateMutability": "view"
        },
        {
            "type": "function",
            "name": "getSocialLink",
            "inputs": [
                {
                    "name": "_user",
                    "type": "address",
                    "internalType": "address"
                }
            ],
            "outputs": [
                {
                    "name": "socialType",
                    "type": "string",
                    "internalType": "string"
                },
                {
                    "name": "socialId",
                    "type": "string",
                    "internalType": "string"
                }
            ],
            "stateMutability": "view"
        },
        {
            "type": "function",
            "name": "hasMinted",
            "inputs": [
                {
                    "name": "",
                    "type": "address",
                    "internalType": "address"
                }
            ],
            "outputs": [
                {
                    "name": "",
                    "type": "bool",
                    "internalType": "bool"
                }
            ],
            "stateMutability": "view"
        },
        {
            "type": "function",
            "name": "isApprovedForAll",
            "inputs": [
                {
                    "name": "owner",
                    "type": "address",
                    "internalType": "address"
                },
                {
                    "name": "operator",
                    "type": "address",
                    "internalType": "address"
                }
            ],
            "outputs": [
                {
                    "name": "",
                    "type": "bool",
                    "internalType": "bool"
                }
            ],
            "stateMutability": "view"
        },
        {
            "type": "function",
            "name": "linkSocial",
            "inputs": [
                {
                    "name": "_user",
                    "type": "address",
                    "internalType": "address"
                },
                {
                    "name": "_socialType",
                    "type": "string",
                    "internalType": "string"
                },
                {
                    "name": "_socialId",
                    "type": "string",
                    "internalType": "string"
                }
            ],
            "outputs": [],
            "stateMutability": "nonpayable"
        },
        {
            "type": "function",
            "name": "mintBaseCard",
            "inputs": [],
            "outputs": [],
            "stateMutability": "nonpayable"
        },
        {
            "type": "function",
            "name": "name",
            "inputs": [],
            "outputs": [
                {
                    "name": "",
                    "type": "string",
                    "internalType": "string"
                }
            ],
            "stateMutability": "view"
        },
        {
            "type": "function",
            "name": "owner",
            "inputs": [],
            "outputs": [
                {
                    "name": "",
                    "type": "address",
                    "internalType": "address"
                }
            ],
            "stateMutability": "view"
        },
        {
            "type": "function",
            "name": "ownerOf",
            "inputs": [
                {
                    "name": "tokenId",
                    "type": "uint256",
                    "internalType": "uint256"
                }
            ],
            "outputs": [
                {
                    "name": "",
                    "type": "address",
                    "internalType": "address"
                }
            ],
            "stateMutability": "view"
        },
        {
            "type": "function",
            "name": "renounceOwnership",
            "inputs": [],
            "outputs": [],
            "stateMutability": "nonpayable"
        },
        {
            "type": "function",
            "name": "safeTransferFrom",
            "inputs": [
                {
                    "name": "from",
                    "type": "address",
                    "internalType": "address"
                },
                {
                    "name": "to",
                    "type": "address",
                    "internalType": "address"
                },
                {
                    "name": "tokenId",
                    "type": "uint256",
                    "internalType": "uint256"
                }
            ],
            "outputs": [],
            "stateMutability": "nonpayable"
        },
        {
            "type": "function",
            "name": "safeTransferFrom",
            "inputs": [
                {
                    "name": "from",
                    "type": "address",
                    "internalType": "address"
                },
                {
                    "name": "to",
                    "type": "address",
                    "internalType": "address"
                },
                {
                    "name": "tokenId",
                    "type": "uint256",
                    "internalType": "uint256"
                },
                {
                    "name": "data",
                    "type": "bytes",
                    "internalType": "bytes"
                }
            ],
            "outputs": [],
            "stateMutability": "nonpayable"
        },
        {
            "type": "function",
            "name": "setApprovalForAll",
            "inputs": [
                {
                    "name": "operator",
                    "type": "address",
                    "internalType": "address"
                },
                {
                    "name": "approved",
                    "type": "bool",
                    "internalType": "bool"
                }
            ],
            "outputs": [],
            "stateMutability": "nonpayable"
        },
        {
            "type": "function",
            "name": "socialLinks",
            "inputs": [
                {
                    "name": "",
                    "type": "address",
                    "internalType": "address"
                }
            ],
            "outputs": [
                {
                    "name": "socialType",
                    "type": "string",
                    "internalType": "string"
                },
                {
                    "name": "socialId",
                    "type": "string",
                    "internalType": "string"
                }
            ],
            "stateMutability": "view"
        },
        {
            "type": "function",
            "name": "supportsInterface",
            "inputs": [
                {
                    "name": "interfaceId",
                    "type": "bytes4",
                    "internalType": "bytes4"
                }
            ],
            "outputs": [
                {
                    "name": "",
                    "type": "bool",
                    "internalType": "bool"
                }
            ],
            "stateMutability": "view"
        },
        {
            "type": "function",
            "name": "symbol",
            "inputs": [],
            "outputs": [
                {
                    "name": "",
                    "type": "string",
                    "internalType": "string"
                }
            ],
            "stateMutability": "view"
        },
        {
            "type": "function",
            "name": "tokenDecimals",
            "inputs": [],
            "outputs": [
                {
                    "name": "",
                    "type": "uint8",
                    "internalType": "uint8"
                }
            ],
            "stateMutability": "view"
        },
        {
            "type": "function",
            "name": "tokenURI",
            "inputs": [
                {
                    "name": "tokenId",
                    "type": "uint256",
                    "internalType": "uint256"
                }
            ],
            "outputs": [
                {
                    "name": "",
                    "type": "string",
                    "internalType": "string"
                }
            ],
            "stateMutability": "view"
        },
        {
            "type": "function",
            "name": "transferFrom",
            "inputs": [
                {
                    "name": "from",
                    "type": "address",
                    "internalType": "address"
                },
                {
                    "name": "to",
                    "type": "address",
                    "internalType": "address"
                },
                {
                    "name": "tokenId",
                    "type": "uint256",
                    "internalType": "uint256"
                }
            ],
            "outputs": [],
            "stateMutability": "nonpayable"
        },
        {
            "type": "function",
            "name": "transferOwnership",
            "inputs": [
                {
                    "name": "newOwner",
                    "type": "address",
                    "internalType": "address"
                }
            ],
            "outputs": [],
            "stateMutability": "nonpayable"
        },
        {
            "type": "event",
            "name": "Approval",
            "inputs": [
                {
                    "name": "owner",
                    "type": "address",
                    "indexed": true,
                    "internalType": "address"
                },
                {
                    "name": "approved",
                    "type": "address",
                    "indexed": true,
                    "internalType": "address"
                },
                {
                    "name": "tokenId",
                    "type": "uint256",
                    "indexed": true,
                    "internalType": "uint256"
                }
            ],
            "anonymous": false
        },
        {
            "type": "event",
            "name": "ApprovalForAll",
            "inputs": [
                {
                    "name": "owner",
                    "type": "address",
                    "indexed": true,
                    "internalType": "address"
                },
                {
                    "name": "operator",
                    "type": "address",
                    "indexed": true,
                    "internalType": "address"
                },
                {
                    "name": "approved",
                    "type": "bool",
                    "indexed": false,
                    "internalType": "bool"
                }
            ],
            "anonymous": false
        },
        {
            "type": "event",
            "name": "OwnershipTransferred",
            "inputs": [
                {
                    "name": "previousOwner",
                    "type": "address",
                    "indexed": true,
                    "internalType": "address"
                },
                {
                    "name": "newOwner",
                    "type": "address",
                    "indexed": true,
                    "internalType": "address"
                }
            ],
            "anonymous": false
        },
        {
            "type": "event",
            "name": "SocialLinked",
            "inputs": [
                {
                    "name": "user",
                    "type": "address",
                    "indexed": true,
                    "internalType": "address"
                },
                {
                    "name": "socialType",
                    "type": "string",
                    "indexed": false,
                    "internalType": "string"
                },
                {
                    "name": "socialId",
                    "type": "string",
                    "indexed": false,
                    "internalType": "string"
                }
            ],
            "anonymous": false
        },
        {
            "type": "event",
            "name": "Transfer",
            "inputs": [
                {
                    "name": "from",
                    "type": "address",
                    "indexed": true,
                    "internalType": "address"
                },
                {
                    "name": "to",
                    "type": "address",
                    "indexed": true,
                    "internalType": "address"
                },
                {
                    "name": "tokenId",
                    "type": "uint256",
                    "indexed": true,
                    "internalType": "uint256"
                }
            ],
            "anonymous": false
        },
        {
            "type": "error",
            "name": "AlreadyMinted",
            "inputs": []
        },
        {
            "type": "error",
            "name": "ERC721IncorrectOwner",
            "inputs": [
                {
                    "name": "sender",
                    "type": "address",
                    "internalType": "address"
                },
                {
                    "name": "tokenId",
                    "type": "uint256",
                    "internalType": "uint256"
                },
                {
                    "name": "owner",
                    "type": "address",
                    "internalType": "address"
                }
            ]
        },
        {
            "type": "error",
            "name": "ERC721InsufficientApproval",
            "inputs": [
                {
                    "name": "operator",
                    "type": "address",
                    "internalType": "address"
                },
                {
                    "name": "tokenId",
                    "type": "uint256",
                    "internalType": "uint256"
                }
            ]
        },
        {
            "type": "error",
            "name": "ERC721InvalidApprover",
            "inputs": [
                {
                    "name": "approver",
                    "type": "address",
                    "internalType": "address"
                }
            ]
        },
        {
            "type": "error",
            "name": "ERC721InvalidOperator",
            "inputs": [
                {
                    "name": "operator",
                    "type": "address",
                    "internalType": "address"
                }
            ]
        },
        {
            "type": "error",
            "name": "ERC721InvalidOwner",
            "inputs": [
                {
                    "name": "owner",
                    "type": "address",
                    "internalType": "address"
                }
            ]
        },
        {
            "type": "error",
            "name": "ERC721InvalidReceiver",
            "inputs": [
                {
                    "name": "receiver",
                    "type": "address",
                    "internalType": "address"
                }
            ]
        },
        {
            "type": "error",
            "name": "ERC721InvalidSender",
            "inputs": [
                {
                    "name": "sender",
                    "type": "address",
                    "internalType": "address"
                }
            ]
        },
        {
            "type": "error",
            "name": "ERC721NonexistentToken",
            "inputs": [
                {
                    "name": "tokenId",
                    "type": "uint256",
                    "internalType": "uint256"
                }
            ]
        },
        {
            "type": "error",
            "name": "InvalidCardTokenAddress",
            "inputs": []
        },
        {
            "type": "error",
            "name": "NotNFTOwner",
            "inputs": []
        },
        {
            "type": "error",
            "name": "OwnableInvalidOwner",
            "inputs": [
                {
                    "name": "owner",
                    "type": "address",
                    "internalType": "address"
                }
            ]
        },
        {
            "type": "error",
            "name": "OwnableUnauthorizedAccount",
            "inputs": [
                {
                    "name": "account",
                    "type": "address",
                    "internalType": "address"
                }
            ]
        }
    ],
    "bytecode": {
        "object": "0x60a06040526001600755348015610014575f5ffd5b5060405161375338038061375383398181016040528101906100369190610304565b336040518060400160405280600881526020017f42617365436172640000000000000000000000000000000000000000000000008152506040518060400160405280600281526020017f4243000000000000000000000000000000000000000000000000000000000000815250815f90816100b1919061056c565b5080600190816100c1919061056c565b5050505f73ffffffffffffffffffffffffffffffffffffffff168173ffffffffffffffffffffffffffffffffffffffff1603610134575f6040517f1e4fbdf700000000000000000000000000000000000000000000000000000000815260040161012b919061064a565b60405180910390fd5b610143816101e360201b60201c565b505f73ffffffffffffffffffffffffffffffffffffffff168173ffffffffffffffffffffffffffffffffffffffff16036101a9576040517f2a44fbc200000000000000000000000000000000000000000000000000000000815260040160405180910390fd5b8073ffffffffffffffffffffffffffffffffffffffff1660808173ffffffffffffffffffffffffffffffffffffffff168152505050610663565b5f60065f9054906101000a900473ffffffffffffffffffffffffffffffffffffffff1690508160065f6101000a81548173ffffffffffffffffffffffffffffffffffffffff021916908373ffffffffffffffffffffffffffffffffffffffff1602179055508173ffffffffffffffffffffffffffffffffffffffff168173ffffffffffffffffffffffffffffffffffffffff167f8be0079c531659141344cd1fd0a4f28419497f9722a3daafe3b4186f6b6457e060405160405180910390a35050565b5f5ffd5b5f73ffffffffffffffffffffffffffffffffffffffff82169050919050565b5f6102d3826102aa565b9050919050565b6102e3816102c9565b81146102ed575f5ffd5b50565b5f815190506102fe816102da565b92915050565b5f60208284031215610319576103186102a6565b5b5f610326848285016102f0565b91505092915050565b5f81519050919050565b7f4e487b71000000000000000000000000000000000000000000000000000000005f52604160045260245ffd5b7f4e487b71000000000000000000000000000000000000000000000000000000005f52602260045260245ffd5b5f60028204905060018216806103aa57607f821691505b6020821081036103bd576103bc610366565b5b50919050565b5f819050815f5260205f209050919050565b5f6020601f8301049050919050565b5f82821b905092915050565b5f6008830261041f7fffffffffffffffffffffffffffffffffffffffffffffffffffffffffffffffff826103e4565b61042986836103e4565b95508019841693508086168417925050509392505050565b5f819050919050565b5f819050919050565b5f61046d61046861046384610441565b61044a565b610441565b9050919050565b5f819050919050565b61048683610453565b61049a61049282610474565b8484546103f0565b825550505050565b5f5f905090565b6104b16104a2565b6104bc81848461047d565b505050565b5b818110156104df576104d45f826104a9565b6001810190506104c2565b5050565b601f821115610524576104f5816103c3565b6104fe846103d5565b8101602085101561050d578190505b610521610519856103d5565b8301826104c1565b50505b505050565b5f82821c905092915050565b5f6105445f1984600802610529565b1980831691505092915050565b5f61055c8383610535565b9150826002028217905092915050565b6105758261032f565b67ffffffffffffffff81111561058e5761058d610339565b5b6105988254610393565b6105a38282856104e3565b5f60209050601f8311600181146105d4575f84156105c2578287015190505b6105cc8582610551565b865550610633565b601f1984166105e2866103c3565b5f5b82811015610609578489015182556001820191506020850194506020810190506105e4565b868310156106265784890151610622601f891682610535565b8355505b6001600288020188555050505b505050505050565b610644816102c9565b82525050565b5f60208201905061065d5f83018461063b565b92915050565b6080516130c36106905f395f81816106ad015281816107f001528181610ff701526111fb01526130c35ff3fe608060405234801561000f575f5ffd5b506004361061018c575f3560e01c8063715018a6116100dc578063b88d4fde11610095578063e985e9c51161006f578063e985e9c514610498578063efc351f3146104c8578063f2fde38b146104d2578063f5df5765146104ee5761018c565b8063b88d4fde1461042e578063c77a1fe21461044a578063c87b56dd146104685761018c565b8063715018a61461037d578063891b090a146103875780638da5cb5b146103a557806395d89b41146103c3578063a22cb465146103e1578063a3994865146103fd5761018c565b806338e21cce116101495780634612638f116101235780634612638f146102ce5780636352211e146102ec5780636d0509861461031c57806370a082311461034d5761018c565b806338e21cce146102645780633b97e8561461029457806342842e0e146102b25761018c565b806301ffc9a71461019057806306fdde03146101c0578063081812fc146101de578063095ea7b31461020e578063215eef211461022a57806323b872dd14610248575b5f5ffd5b6101aa60048036038101906101a591906121f3565b61050a565b6040516101b79190612238565b60405180910390f35b6101c86105eb565b6040516101d591906122c1565b60405180910390f35b6101f860048036038101906101f39190612314565b61067a565b604051610205919061237e565b60405180910390f35b610228600480360381019061022391906123c1565b610695565b005b6102326106ab565b60405161023f919061245a565b60405180910390f35b610262600480360381019061025d9190612473565b6106cf565b005b61027e600480360381019061027991906124c3565b6107ce565b60405161028b9190612238565b60405180910390f35b61029c6107eb565b6040516102a99190612509565b60405180910390f35b6102cc60048036038101906102c79190612473565b610931565b005b6102d6610950565b6040516102e39190612509565b60405180910390f35b61030660048036038101906103019190612314565b610955565b604051610313919061237e565b60405180910390f35b610336600480360381019061033191906124c3565b610966565b604051610344929190612522565b60405180910390f35b610367600480360381019061036291906124c3565b610ae6565b6040516103749190612566565b60405180910390f35b610385610b9c565b005b61038f610baf565b60405161039c9190612566565b60405180910390f35b6103ad610bcc565b6040516103ba919061237e565b60405180910390f35b6103cb610bf4565b6040516103d891906122c1565b60405180910390f35b6103fb60048036038101906103f691906125a9565b610c84565b005b610417600480360381019061041291906124c3565b610c9a565b604051610425929190612522565b60405180910390f35b61044860048036038101906104439190612713565b610dc6565b005b610452610deb565b60405161045f9190612566565b60405180910390f35b610482600480360381019061047d9190612314565b610e08565b60405161048f91906122c1565b60405180910390f35b6104b260048036038101906104ad9190612793565b610e6e565b6040516104bf9190612238565b60405180910390f35b6104d0610efc565b005b6104ec60048036038101906104e791906124c3565b6110ad565b005b6105086004803603810190610503919061286f565b611131565b005b5f7f80ac58cd000000000000000000000000000000000000000000000000000000007bffffffffffffffffffffffffffffffffffffffffffffffffffffffff1916827bffffffffffffffffffffffffffffffffffffffffffffffffffffffff191614806105d457507f5b5e139f000000000000000000000000000000000000000000000000000000007bffffffffffffffffffffffffffffffffffffffffffffffffffffffff1916827bffffffffffffffffffffffffffffffffffffffffffffffffffffffff1916145b806105e457506105e382611303565b5b9050919050565b60605f80546105f990612924565b80601f016020809104026020016040519081016040528092919081815260200182805461062590612924565b80156106705780601f1061064757610100808354040283529160200191610670565b820191905f5260205f20905b81548152906001019060200180831161065357829003601f168201915b5050505050905090565b5f6106848261136c565b5061068e826113f2565b9050919050565b6106a782826106a261142b565b611432565b5050565b7f000000000000000000000000000000000000000000000000000000000000000081565b5f73ffffffffffffffffffffffffffffffffffffffff168273ffffffffffffffffffffffffffffffffffffffff160361073f575f6040517f64a0ae92000000000000000000000000000000000000000000000000000000008152600401610736919061237e565b60405180910390fd5b5f610752838361074d61142b565b611444565b90508373ffffffffffffffffffffffffffffffffffffffff168173ffffffffffffffffffffffffffffffffffffffff16146107c8578382826040517f64283d7b0000000000000000000000000000000000000000000000000000000081526004016107bf93929190612954565b60405180910390fd5b50505050565b6008602052805f5260405f205f915054906101000a900460ff1681565b5f5f5f7f000000000000000000000000000000000000000000000000000000000000000073ffffffffffffffffffffffffffffffffffffffff166040516024016040516020818303038152906040527f313ce567000000000000000000000000000000000000000000000000000000007bffffffffffffffffffffffffffffffffffffffffffffffffffffffff19166020820180517bffffffffffffffffffffffffffffffffffffffffffffffffffffffff83818316178352505050506040516108b591906129cd565b5f60405180830381855afa9150503d805f81146108ed576040519150601f19603f3d011682016040523d82523d5f602084013e6108f2565b606091505b5091509150818015610905575060208151145b15610927578080602001905181019061091e9190612a0d565b9250505061092e565b6012925050505b90565b61094b83838360405180602001604052805f815250610dc6565b505050565b601281565b5f61095f8261136c565b9050919050565b6060805f60095f8573ffffffffffffffffffffffffffffffffffffffff1673ffffffffffffffffffffffffffffffffffffffff1681526020019081526020015f206040518060400160405290815f820180546109c190612924565b80601f01602080910402602001604051908101604052809291908181526020018280546109ed90612924565b8015610a385780601f10610a0f57610100808354040283529160200191610a38565b820191905f5260205f20905b815481529060010190602001808311610a1b57829003601f168201915b50505050508152602001600182018054610a5190612924565b80601f0160208091040260200160405190810160405280929190818152602001828054610a7d90612924565b8015610ac85780601f10610a9f57610100808354040283529160200191610ac8565b820191905f5260205f20905b815481529060010190602001808311610aab57829003601f168201915b5050505050815250509050805f015181602001519250925050915091565b5f5f73ffffffffffffffffffffffffffffffffffffffff168273ffffffffffffffffffffffffffffffffffffffff1603610b57575f6040517f89c62b64000000000000000000000000000000000000000000000000000000008152600401610b4e919061237e565b60405180910390fd5b60035f8373ffffffffffffffffffffffffffffffffffffffff1673ffffffffffffffffffffffffffffffffffffffff1681526020019081526020015f20549050919050565b610ba461164f565b610bad5f6116d6565b565b6012600a610bbd9190612b94565b6005610bc99190612bde565b81565b5f60065f9054906101000a900473ffffffffffffffffffffffffffffffffffffffff16905090565b606060018054610c0390612924565b80601f0160208091040260200160405190810160405280929190818152602001828054610c2f90612924565b8015610c7a5780601f10610c5157610100808354040283529160200191610c7a565b820191905f5260205f20905b815481529060010190602001808311610c5d57829003601f168201915b5050505050905090565b610c96610c8f61142b565b8383611799565b5050565b6009602052805f5260405f205f91509050805f018054610cb990612924565b80601f0160208091040260200160405190810160405280929190818152602001828054610ce590612924565b8015610d305780601f10610d0757610100808354040283529160200191610d30565b820191905f5260205f20905b815481529060010190602001808311610d1357829003601f168201915b505050505090806001018054610d4590612924565b80601f0160208091040260200160405190810160405280929190818152602001828054610d7190612924565b8015610dbc5780601f10610d9357610100808354040283529160200191610dbc565b820191905f5260205f20905b815481529060010190602001808311610d9f57829003601f168201915b5050505050905082565b610dd18484846106cf565b610de5610ddc61142b565b85858585611902565b50505050565b6012600a610df99190612b94565b600a610e059190612bde565b81565b6060610e138261136c565b505f610e1d611aae565b90505f815111610e3b5760405180602001604052805f815250610e66565b80610e4584611ac4565b604051602001610e56929190612c59565b6040516020818303038152906040525b915050919050565b5f60055f8473ffffffffffffffffffffffffffffffffffffffff1673ffffffffffffffffffffffffffffffffffffffff1681526020019081526020015f205f8373ffffffffffffffffffffffffffffffffffffffff1673ffffffffffffffffffffffffffffffffffffffff1681526020019081526020015f205f9054906101000a900460ff16905092915050565b60085f3373ffffffffffffffffffffffffffffffffffffffff1673ffffffffffffffffffffffffffffffffffffffff1681526020019081526020015f205f9054906101000a900460ff1615610f7d576040517fddefae2800000000000000000000000000000000000000000000000000000000815260040160405180910390fd5b600160085f3373ffffffffffffffffffffffffffffffffffffffff1673ffffffffffffffffffffffffffffffffffffffff1681526020019081526020015f205f6101000a81548160ff0219169083151502179055505f60075f815480929190610fe590612c7c565b919050559050610ff53382611b8e565b7f000000000000000000000000000000000000000000000000000000000000000073ffffffffffffffffffffffffffffffffffffffff1663a9059cbb336012600a6110409190612b94565b600a61104c9190612bde565b6040518363ffffffff1660e01b8152600401611069929190612cc3565b6020604051808303815f875af1158015611085573d5f5f3e3d5ffd5b505050506040513d601f19601f820116820180604052508101906110a99190612cfe565b5050565b6110b561164f565b5f73ffffffffffffffffffffffffffffffffffffffff168173ffffffffffffffffffffffffffffffffffffffff1603611125575f6040517f1e4fbdf700000000000000000000000000000000000000000000000000000000815260040161111c919061237e565b60405180910390fd5b61112e816116d6565b50565b61113961164f565b5f61114384610ae6565b0361117a576040517f4088c61c00000000000000000000000000000000000000000000000000000000815260040160405180910390fd5b60405180604001604052808381526020018281525060095f8573ffffffffffffffffffffffffffffffffffffffff1673ffffffffffffffffffffffffffffffffffffffff1681526020019081526020015f205f820151815f0190816111df9190612ec0565b5060208201518160010190816111f59190612ec0565b509050507f000000000000000000000000000000000000000000000000000000000000000073ffffffffffffffffffffffffffffffffffffffff1663a9059cbb846012600a6112449190612b94565b60056112509190612bde565b6040518363ffffffff1660e01b815260040161126d929190612cc3565b6020604051808303815f875af1158015611289573d5f5f3e3d5ffd5b505050506040513d601f19601f820116820180604052508101906112ad9190612cfe565b508273ffffffffffffffffffffffffffffffffffffffff167f07a2de6ff7df6306f4a9ad7e5dec1632164381d9ded4477a8190bf949fac48be83836040516112f6929190612522565b60405180910390a2505050565b5f7f01ffc9a7000000000000000000000000000000000000000000000000000000007bffffffffffffffffffffffffffffffffffffffffffffffffffffffff1916827bffffffffffffffffffffffffffffffffffffffffffffffffffffffff1916149050919050565b5f5f61137783611bab565b90505f73ffffffffffffffffffffffffffffffffffffffff168173ffffffffffffffffffffffffffffffffffffffff16036113e957826040517f7e2732890000000000000000000000000000000000000000000000000000000081526004016113e09190612566565b60405180910390fd5b80915050919050565b5f60045f8381526020019081526020015f205f9054906101000a900473ffffffffffffffffffffffffffffffffffffffff169050919050565b5f33905090565b61143f8383836001611be4565b505050565b5f5f61144f84611bab565b90505f73ffffffffffffffffffffffffffffffffffffffff168373ffffffffffffffffffffffffffffffffffffffff16146114905761148f818486611da3565b5b5f73ffffffffffffffffffffffffffffffffffffffff168173ffffffffffffffffffffffffffffffffffffffff161461151b576114cf5f855f5f611be4565b600160035f8373ffffffffffffffffffffffffffffffffffffffff1673ffffffffffffffffffffffffffffffffffffffff1681526020019081526020015f205f82825403925050819055505b5f73ffffffffffffffffffffffffffffffffffffffff168573ffffffffffffffffffffffffffffffffffffffff161461159a57600160035f8773ffffffffffffffffffffffffffffffffffffffff1673ffffffffffffffffffffffffffffffffffffffff1681526020019081526020015f205f82825401925050819055505b8460025f8681526020019081526020015f205f6101000a81548173ffffffffffffffffffffffffffffffffffffffff021916908373ffffffffffffffffffffffffffffffffffffffff160217905550838573ffffffffffffffffffffffffffffffffffffffff168273ffffffffffffffffffffffffffffffffffffffff167fddf252ad1be2c89b69c2b068fc378daa952ba7f163c4a11628f55a4df523b3ef60405160405180910390a4809150509392505050565b61165761142b565b73ffffffffffffffffffffffffffffffffffffffff16611675610bcc565b73ffffffffffffffffffffffffffffffffffffffff16146116d45761169861142b565b6040517f118cdaa70000000000000000000000000000000000000000000000000000000081526004016116cb919061237e565b60405180910390fd5b565b5f60065f9054906101000a900473ffffffffffffffffffffffffffffffffffffffff1690508160065f6101000a81548173ffffffffffffffffffffffffffffffffffffffff021916908373ffffffffffffffffffffffffffffffffffffffff1602179055508173ffffffffffffffffffffffffffffffffffffffff168173ffffffffffffffffffffffffffffffffffffffff167f8be0079c531659141344cd1fd0a4f28419497f9722a3daafe3b4186f6b6457e060405160405180910390a35050565b5f73ffffffffffffffffffffffffffffffffffffffff168273ffffffffffffffffffffffffffffffffffffffff160361180957816040517f5b08ba18000000000000000000000000000000000000000000000000000000008152600401611800919061237e565b60405180910390fd5b8060055f8573ffffffffffffffffffffffffffffffffffffffff1673ffffffffffffffffffffffffffffffffffffffff1681526020019081526020015f205f8473ffffffffffffffffffffffffffffffffffffffff1673ffffffffffffffffffffffffffffffffffffffff1681526020019081526020015f205f6101000a81548160ff0219169083151502179055508173ffffffffffffffffffffffffffffffffffffffff168373ffffffffffffffffffffffffffffffffffffffff167f17307eab39ab6107e8899845ad3d59bd9653f200f220920489ca2b5937696c31836040516118f59190612238565b60405180910390a3505050565b5f8373ffffffffffffffffffffffffffffffffffffffff163b1115611aa7578273ffffffffffffffffffffffffffffffffffffffff1663150b7a02868685856040518563ffffffff1660e01b81526004016119609493929190612fd7565b6020604051808303815f875af192505050801561199b57506040513d601f19601f820116820180604052508101906119989190613035565b60015b611a1c573d805f81146119c9576040519150601f19603f3d011682016040523d82523d5f602084013e6119ce565b606091505b505f815103611a1457836040517f64a0ae92000000000000000000000000000000000000000000000000000000008152600401611a0b919061237e565b60405180910390fd5b805160208201fd5b63150b7a0260e01b7bffffffffffffffffffffffffffffffffffffffffffffffffffffffff1916817bffffffffffffffffffffffffffffffffffffffffffffffffffffffff191614611aa557836040517f64a0ae92000000000000000000000000000000000000000000000000000000008152600401611a9c919061237e565b60405180910390fd5b505b5050505050565b606060405180602001604052805f815250905090565b60605f6001611ad284611e66565b0190505f8167ffffffffffffffff811115611af057611aef6125ef565b5b6040519080825280601f01601f191660200182016040528015611b225781602001600182028036833780820191505090505b5090505f82602083010190505b600115611b83578080600190039150507f3031323334353637383961626364656600000000000000000000000000000000600a86061a8153600a8581611b7857611b77613060565b5b0494505f8503611b2f575b819350505050919050565b611ba7828260405180602001604052805f815250611fb7565b5050565b5f60025f8381526020019081526020015f205f9054906101000a900473ffffffffffffffffffffffffffffffffffffffff169050919050565b8080611c1c57505f73ffffffffffffffffffffffffffffffffffffffff168273ffffffffffffffffffffffffffffffffffffffff1614155b15611d4e575f611c2b8461136c565b90505f73ffffffffffffffffffffffffffffffffffffffff168373ffffffffffffffffffffffffffffffffffffffff1614158015611c9557508273ffffffffffffffffffffffffffffffffffffffff168173ffffffffffffffffffffffffffffffffffffffff1614155b8015611ca85750611ca68184610e6e565b155b15611cea57826040517fa9fbf51f000000000000000000000000000000000000000000000000000000008152600401611ce1919061237e565b60405180910390fd5b8115611d4c57838573ffffffffffffffffffffffffffffffffffffffff168273ffffffffffffffffffffffffffffffffffffffff167f8c5be1e5ebec7d5bd14f71427d1e84f3dd0314c0f7b2291e5b200ac8c7c3b92560405160405180910390a45b505b8360045f8581526020019081526020015f205f6101000a81548173ffffffffffffffffffffffffffffffffffffffff021916908373ffffffffffffffffffffffffffffffffffffffff16021790555050505050565b611dae838383611fda565b611e61575f73ffffffffffffffffffffffffffffffffffffffff168373ffffffffffffffffffffffffffffffffffffffff1603611e2257806040517f7e273289000000000000000000000000000000000000000000000000000000008152600401611e199190612566565b60405180910390fd5b81816040517f177e802f000000000000000000000000000000000000000000000000000000008152600401611e58929190612cc3565b60405180910390fd5b505050565b5f5f5f90507a184f03e93ff9f4daa797ed6e38ed64bf6a1f0100000000000000008310611ec2577a184f03e93ff9f4daa797ed6e38ed64bf6a1f0100000000000000008381611eb857611eb7613060565b5b0492506040810190505b6d04ee2d6d415b85acef81000000008310611eff576d04ee2d6d415b85acef81000000008381611ef557611ef4613060565b5b0492506020810190505b662386f26fc100008310611f2e57662386f26fc100008381611f2457611f23613060565b5b0492506010810190505b6305f5e1008310611f57576305f5e1008381611f4d57611f4c613060565b5b0492506008810190505b6127108310611f7c576127108381611f7257611f71613060565b5b0492506004810190505b60648310611f9f5760648381611f9557611f94613060565b5b0492506002810190505b600a8310611fae576001810190505b80915050919050565b611fc1838361209a565b611fd5611fcc61142b565b5f858585611902565b505050565b5f5f73ffffffffffffffffffffffffffffffffffffffff168373ffffffffffffffffffffffffffffffffffffffff161415801561209157508273ffffffffffffffffffffffffffffffffffffffff168473ffffffffffffffffffffffffffffffffffffffff16148061205257506120518484610e6e565b5b8061209057508273ffffffffffffffffffffffffffffffffffffffff16612078836113f2565b73ffffffffffffffffffffffffffffffffffffffff16145b5b90509392505050565b5f73ffffffffffffffffffffffffffffffffffffffff168273ffffffffffffffffffffffffffffffffffffffff160361210a575f6040517f64a0ae92000000000000000000000000000000000000000000000000000000008152600401612101919061237e565b60405180910390fd5b5f61211683835f611444565b90505f73ffffffffffffffffffffffffffffffffffffffff168173ffffffffffffffffffffffffffffffffffffffff1614612188575f6040517f73c6ac6e00000000000000000000000000000000000000000000000000000000815260040161217f919061237e565b60405180910390fd5b505050565b5f604051905090565b5f5ffd5b5f5ffd5b5f7fffffffff0000000000000000000000000000000000000000000000000000000082169050919050565b6121d28161219e565b81146121dc575f5ffd5b50565b5f813590506121ed816121c9565b92915050565b5f6020828403121561220857612207612196565b5b5f612215848285016121df565b91505092915050565b5f8115159050919050565b6122328161221e565b82525050565b5f60208201905061224b5f830184612229565b92915050565b5f81519050919050565b5f82825260208201905092915050565b8281835e5f83830152505050565b5f601f19601f8301169050919050565b5f61229382612251565b61229d818561225b565b93506122ad81856020860161226b565b6122b681612279565b840191505092915050565b5f6020820190508181035f8301526122d98184612289565b905092915050565b5f819050919050565b6122f3816122e1565b81146122fd575f5ffd5b50565b5f8135905061230e816122ea565b92915050565b5f6020828403121561232957612328612196565b5b5f61233684828501612300565b91505092915050565b5f73ffffffffffffffffffffffffffffffffffffffff82169050919050565b5f6123688261233f565b9050919050565b6123788161235e565b82525050565b5f6020820190506123915f83018461236f565b92915050565b6123a08161235e565b81146123aa575f5ffd5b50565b5f813590506123bb81612397565b92915050565b5f5f604083850312156123d7576123d6612196565b5b5f6123e4858286016123ad565b92505060206123f585828601612300565b9150509250929050565b5f819050919050565b5f61242261241d6124188461233f565b6123ff565b61233f565b9050919050565b5f61243382612408565b9050919050565b5f61244482612429565b9050919050565b6124548161243a565b82525050565b5f60208201905061246d5f83018461244b565b92915050565b5f5f5f6060848603121561248a57612489612196565b5b5f612497868287016123ad565b93505060206124a8868287016123ad565b92505060406124b986828701612300565b9150509250925092565b5f602082840312156124d8576124d7612196565b5b5f6124e5848285016123ad565b91505092915050565b5f60ff82169050919050565b612503816124ee565b82525050565b5f60208201905061251c5f8301846124fa565b92915050565b5f6040820190508181035f83015261253a8185612289565b9050818103602083015261254e8184612289565b90509392505050565b612560816122e1565b82525050565b5f6020820190506125795f830184612557565b92915050565b6125888161221e565b8114612592575f5ffd5b50565b5f813590506125a38161257f565b92915050565b5f5f604083850312156125bf576125be612196565b5b5f6125cc858286016123ad565b92505060206125dd85828601612595565b9150509250929050565b5f5ffd5b5f5ffd5b7f4e487b71000000000000000000000000000000000000000000000000000000005f52604160045260245ffd5b61262582612279565b810181811067ffffffffffffffff82111715612644576126436125ef565b5b80604052505050565b5f61265661218d565b9050612662828261261c565b919050565b5f67ffffffffffffffff821115612681576126806125ef565b5b61268a82612279565b9050602081019050919050565b828183375f83830152505050565b5f6126b76126b284612667565b61264d565b9050828152602081018484840111156126d3576126d26125eb565b5b6126de848285612697565b509392505050565b5f82601f8301126126fa576126f96125e7565b5b813561270a8482602086016126a5565b91505092915050565b5f5f5f5f6080858703121561272b5761272a612196565b5b5f612738878288016123ad565b9450506020612749878288016123ad565b935050604061275a87828801612300565b925050606085013567ffffffffffffffff81111561277b5761277a61219a565b5b612787878288016126e6565b91505092959194509250565b5f5f604083850312156127a9576127a8612196565b5b5f6127b6858286016123ad565b92505060206127c7858286016123ad565b9150509250929050565b5f67ffffffffffffffff8211156127eb576127ea6125ef565b5b6127f482612279565b9050602081019050919050565b5f61281361280e846127d1565b61264d565b90508281526020810184848401111561282f5761282e6125eb565b5b61283a848285612697565b509392505050565b5f82601f830112612856576128556125e7565b5b8135612866848260208601612801565b91505092915050565b5f5f5f6060848603121561288657612885612196565b5b5f612893868287016123ad565b935050602084013567ffffffffffffffff8111156128b4576128b361219a565b5b6128c086828701612842565b925050604084013567ffffffffffffffff8111156128e1576128e061219a565b5b6128ed86828701612842565b9150509250925092565b7f4e487b71000000000000000000000000000000000000000000000000000000005f52602260045260245ffd5b5f600282049050600182168061293b57607f821691505b60208210810361294e5761294d6128f7565b5b50919050565b5f6060820190506129675f83018661236f565b6129746020830185612557565b612981604083018461236f565b949350505050565b5f81519050919050565b5f81905092915050565b5f6129a782612989565b6129b18185612993565b93506129c181856020860161226b565b80840191505092915050565b5f6129d8828461299d565b915081905092915050565b6129ec816124ee565b81146129f6575f5ffd5b50565b5f81519050612a07816129e3565b92915050565b5f60208284031215612a2257612a21612196565b5b5f612a2f848285016129f9565b91505092915050565b7f4e487b71000000000000000000000000000000000000000000000000000000005f52601160045260245ffd5b5f8160011c9050919050565b5f5f8291508390505b6001851115612aba57808604811115612a9657612a95612a38565b5b6001851615612aa55780820291505b8081029050612ab385612a65565b9450612a7a565b94509492505050565b5f82612ad25760019050612b8d565b81612adf575f9050612b8d565b8160018114612af55760028114612aff57612b2e565b6001915050612b8d565b60ff841115612b1157612b10612a38565b5b8360020a915084821115612b2857612b27612a38565b5b50612b8d565b5060208310610133831016604e8410600b8410161715612b635782820a905083811115612b5e57612b5d612a38565b5b612b8d565b612b708484846001612a71565b92509050818404811115612b8757612b86612a38565b5b81810290505b9392505050565b5f612b9e826122e1565b9150612ba9836124ee565b9250612bd67fffffffffffffffffffffffffffffffffffffffffffffffffffffffffffffffff8484612ac3565b905092915050565b5f612be8826122e1565b9150612bf3836122e1565b9250828202612c01816122e1565b91508282048414831517612c1857612c17612a38565b5b5092915050565b5f81905092915050565b5f612c3382612251565b612c3d8185612c1f565b9350612c4d81856020860161226b565b80840191505092915050565b5f612c648285612c29565b9150612c708284612c29565b91508190509392505050565b5f612c86826122e1565b91507fffffffffffffffffffffffffffffffffffffffffffffffffffffffffffffffff8203612cb857612cb7612a38565b5b600182019050919050565b5f604082019050612cd65f83018561236f565b612ce36020830184612557565b9392505050565b5f81519050612cf88161257f565b92915050565b5f60208284031215612d1357612d12612196565b5b5f612d2084828501612cea565b91505092915050565b5f819050815f5260205f209050919050565b5f6020601f8301049050919050565b5f82821b905092915050565b5f60088302612d857fffffffffffffffffffffffffffffffffffffffffffffffffffffffffffffffff82612d4a565b612d8f8683612d4a565b95508019841693508086168417925050509392505050565b5f612dc1612dbc612db7846122e1565b6123ff565b6122e1565b9050919050565b5f819050919050565b612dda83612da7565b612dee612de682612dc8565b848454612d56565b825550505050565b5f5f905090565b612e05612df6565b612e10818484612dd1565b505050565b5b81811015612e3357612e285f82612dfd565b600181019050612e16565b5050565b601f821115612e7857612e4981612d29565b612e5284612d3b565b81016020851015612e61578190505b612e75612e6d85612d3b565b830182612e15565b50505b505050565b5f82821c905092915050565b5f612e985f1984600802612e7d565b1980831691505092915050565b5f612eb08383612e89565b9150826002028217905092915050565b612ec982612251565b67ffffffffffffffff811115612ee257612ee16125ef565b5b612eec8254612924565b612ef7828285612e37565b5f60209050601f831160018114612f28575f8415612f16578287015190505b612f208582612ea5565b865550612f87565b601f198416612f3686612d29565b5f5b82811015612f5d57848901518255600182019150602085019450602081019050612f38565b86831015612f7a5784890151612f76601f891682612e89565b8355505b6001600288020188555050505b505050505050565b5f82825260208201905092915050565b5f612fa982612989565b612fb38185612f8f565b9350612fc381856020860161226b565b612fcc81612279565b840191505092915050565b5f608082019050612fea5f83018761236f565b612ff7602083018661236f565b6130046040830185612557565b81810360608301526130168184612f9f565b905095945050505050565b5f8151905061302f816121c9565b92915050565b5f6020828403121561304a57613049612196565b5b5f61305784828501613021565b91505092915050565b7f4e487b71000000000000000000000000000000000000000000000000000000005f52601260045260245ffdfea26469706673582212201246db54ae768991bb058c250d9cdb09e380f4ce051ad2d923af173c8e5c57f364736f6c634300081e0033",
        "linkReferences": {}
    },
    "methodIdentifiers": {
        "CARD_DECIMALS()": "4612638f",
        "LINK_2_EARN_AMOUNT()": "891b090a",
        "MINT_2_EARN_AMOUNT()": "c77a1fe2",
        "approve(address,uint256)": "095ea7b3",
        "balanceOf(address)": "70a08231",
        "cardToken()": "215eef21",
        "getApproved(uint256)": "081812fc",
        "getSocialLink(address)": "6d050986",
        "hasMinted(address)": "38e21cce",
        "isApprovedForAll(address,address)": "e985e9c5",
        "linkSocial(address,string,string)": "f5df5765",
        "mintBaseCard()": "efc351f3",
        "name()": "06fdde03",
        "owner()": "8da5cb5b",
        "ownerOf(uint256)": "6352211e",
        "renounceOwnership()": "715018a6",
        "safeTransferFrom(address,address,uint256)": "42842e0e",
        "safeTransferFrom(address,address,uint256,bytes)": "b88d4fde",
        "setApprovalForAll(address,bool)": "a22cb465",
        "socialLinks(address)": "a3994865",
        "supportsInterface(bytes4)": "01ffc9a7",
        "symbol()": "95d89b41",
        "tokenDecimals()": "3b97e856",
        "tokenURI(uint256)": "c87b56dd",
        "transferFrom(address,address,uint256)": "23b872dd",
        "transferOwnership(address)": "f2fde38b"
    },
    "id": 34
}